{
  "_format": "hh-sol-artifact-1",
  "contractName": "NewsRegistry",
  "sourceName": "contracts/NewsRegistry.sol",
  "abi": [
    {
      "inputs": [],
      "stateMutability": "nonpayable",
      "type": "constructor"
    },
    {
      "anonymous": false,
      "inputs": [
        {
          "indexed": true,
          "internalType": "uint256",
          "name": "newsId",
          "type": "uint256"
        },
        {
          "indexed": false,
          "internalType": "bytes32",
          "name": "hash",
          "type": "bytes32"
        },
        {
          "indexed": false,
          "internalType": "string",
          "name": "sourceUrl",
          "type": "string"
        },
        {
          "indexed": true,
          "internalType": "address",
          "name": "creator",
          "type": "address"
        }
      ],
      "name": "NewsAdded",
      "type": "event"
    },
    {
      "anonymous": false,
      "inputs": [
        {
          "indexed": true,
          "internalType": "uint256",
          "name": "newsId",
          "type": "uint256"
        },
        {
          "indexed": false,
          "internalType": "bytes32",
          "name": "newHash",
          "type": "bytes32"
        },
        {
          "indexed": false,
          "internalType": "bytes32",
          "name": "previousHash",
          "type": "bytes32"
        },
        {
          "indexed": true,
          "internalType": "address",
          "name": "editor",
          "type": "address"
        },
        {
          "indexed": false,
          "internalType": "string",
          "name": "note",
          "type": "string"
        }
      ],
      "name": "NewsEdited",
      "type": "event"
    },
    {
      "inputs": [
        {
          "internalType": "bytes32",
          "name": "_hash",
          "type": "bytes32"
        },
        {
          "internalType": "string",
          "name": "_sourceUrl",
          "type": "string"
        }
      ],
      "name": "addNews",
      "outputs": [
        {
          "internalType": "uint256",
          "name": "newsId",
          "type": "uint256"
        }
      ],
      "stateMutability": "nonpayable",
      "type": "function"
    },
    {
      "inputs": [
        {
          "internalType": "uint256",
          "name": "_newsId",
          "type": "uint256"
        },
        {
          "internalType": "bytes32",
          "name": "_newHash",
          "type": "bytes32"
        },
        {
          "internalType": "string",
          "name": "_note",
          "type": "string"
        }
      ],
      "name": "editNews",
      "outputs": [],
      "stateMutability": "nonpayable",
      "type": "function"
    },
    {
      "inputs": [
        {
          "internalType": "uint256",
          "name": "_newsId",
          "type": "uint256"
        },
        {
          "internalType": "uint256",
          "name": "index",
          "type": "uint256"
        }
      ],
      "name": "getEdit",
      "outputs": [
        {
          "internalType": "uint256",
          "name": "timestamp",
          "type": "uint256"
        },
        {
          "internalType": "bytes32",
          "name": "previousHash",
          "type": "bytes32"
        },
        {
          "internalType": "address",
          "name": "editor",
          "type": "address"
        },
        {
          "internalType": "string",
          "name": "note",
          "type": "string"
        }
      ],
      "stateMutability": "view",
      "type": "function"
    },
    {
      "inputs": [
        {
          "internalType": "uint256",
          "name": "_newsId",
          "type": "uint256"
        }
      ],
      "name": "getEditCount",
      "outputs": [
        {
          "internalType": "uint256",
          "name": "",
          "type": "uint256"
        }
      ],
      "stateMutability": "view",
      "type": "function"
    },
    {
      "inputs": [
        {
          "internalType": "uint256",
          "name": "_newsId",
          "type": "uint256"
        }
      ],
      "name": "getNewsMeta",
      "outputs": [
        {
          "internalType": "bytes32",
          "name": "currentHash",
          "type": "bytes32"
        },
        {
          "internalType": "string",
          "name": "sourceUrl",
          "type": "string"
        },
        {
          "internalType": "address",
          "name": "creator",
          "type": "address"
        },
        {
          "internalType": "uint256",
          "name": "createdAt",
          "type": "uint256"
        },
        {
          "internalType": "uint256",
          "name": "editCount",
          "type": "uint256"
        }
      ],
      "stateMutability": "view",
      "type": "function"
    },
    {
      "inputs": [],
      "name": "getTotalNews",
      "outputs": [
        {
          "internalType": "uint256",
          "name": "",
          "type": "uint256"
        }
      ],
      "stateMutability": "view",
      "type": "function"
    },
    {
      "inputs": [],
      "name": "nextId",
      "outputs": [
        {
          "internalType": "uint256",
          "name": "",
          "type": "uint256"
        }
      ],
      "stateMutability": "view",
      "type": "function"
    },
    {
      "inputs": [],
      "name": "owner",
      "outputs": [
        {
          "internalType": "address",
          "name": "",
          "type": "address"
        }
      ],
      "stateMutability": "view",
      "type": "function"
    }
  ],
  "bytecode": "0x608060405234801561001057600080fd5b50336000806101000a81548173ffffffffffffffffffffffffffffffffffffffff021916908373ffffffffffffffffffffffffffffffffffffffff16021790555060018081905550611335806100676000396000f3fe608060405234801561001057600080fd5b50600436106100885760003560e01c80638da5cb5b1161005b5780638da5cb5b1461012b578063d204ff3e14610149578063f265236f14610167578063fa6323251461019757610088565b80630b2ddfa41461008d5780634a5199a3146100bd57806352ea2bad146100d957806361b8ce8c1461010d575b600080fd5b6100a760048036038101906100a29190610910565b6101ca565b6040516100b4919061094c565b60405180910390f35b6100d760048036038101906100d29190610a02565b610252565b005b6100f360048036038101906100ee9190610910565b610458565b604051610104959493929190610b56565b60405180910390f35b6101156105b8565b604051610122919061094c565b60405180910390f35b6101336105be565b6040516101409190610bb0565b60405180910390f35b6101516105e2565b60405161015e919061094c565b60405180910390f35b610181600480360381019061017c9190610bcb565b6105f7565b60405161018e919061094c565b60405180910390f35b6101b160048036038101906101ac9190610c2b565b61070a565b6040516101c19493929190610c6b565b60405180910390f35b6000816002600082815260200190815260200160002060050160009054906101000a900460ff16610230576040517f08c379a000000000000000000000000000000000000000000000000000000000815260040161022790610d03565b60405180910390fd5b6002600084815260200190815260200160002060040180549050915050919050565b836002600082815260200190815260200160002060050160009054906101000a900460ff166102b6576040517f08c379a00000000000000000000000000000000000000000000000000000000081526004016102ad90610d03565b60405180910390fd5b60006002600087815260200190815260200160002090506000816000015490508160040160405180608001604052804281526020018381526020013373ffffffffffffffffffffffffffffffffffffffff16815260200187878080601f016020809104026020016040519081016040528093929190818152602001838380828437600081840152601f19601f820116905080830192505050505050508152509080600181540180825580915050600190039060005260206000209060040201600090919091909150600082015181600001556020820151816001015560408201518160020160006101000a81548173ffffffffffffffffffffffffffffffffffffffff021916908373ffffffffffffffffffffffffffffffffffffffff16021790555060608201518160030190816103ee9190610f5e565b5050508582600001819055503373ffffffffffffffffffffffffffffffffffffffff16877fd070d249e681e7713395be0ccc728206f9185f352581c614ef83084670cc5cb288848989604051610447949392919061106c565b60405180910390a350505050505050565b600060606000806000856002600082815260200190815260200160002060050160009054906101000a900460ff166104c5576040517f08c379a00000000000000000000000000000000000000000000000000000000081526004016104bc90610d03565b60405180910390fd5b60006002600089815260200190815260200160002090508060000154816001018260020160009054906101000a900473ffffffffffffffffffffffffffffffffffffffff168360030154846004018054905083805461052390610d81565b80601f016020809104026020016040519081016040528092919081815260200182805461054f90610d81565b801561059c5780601f106105715761010080835404028352916020019161059c565b820191906000526020600020905b81548152906001019060200180831161057f57829003601f168201915b5050505050935096509650965096509650505091939590929450565b60015481565b60008054906101000a900473ffffffffffffffffffffffffffffffffffffffff1681565b6000600180546105f291906110db565b905090565b60006001600081548092919061060c9061110f565b91905055905060006002600083815260200190815260200160002090508481600001819055508383826001019182610645929190611162565b50338160020160006101000a81548173ffffffffffffffffffffffffffffffffffffffff021916908373ffffffffffffffffffffffffffffffffffffffff16021790555042816003018190555060018160050160006101000a81548160ff0219169083151502179055503373ffffffffffffffffffffffffffffffffffffffff16827fb99faaef375eb393289f44a3405221e9e529e8d3f9b0bc35a350bc0a7d7846ce8787876040516106fa93929190611232565b60405180910390a3509392505050565b60008060006060856002600082815260200190815260200160002060050160009054906101000a900460ff16610775576040517f08c379a000000000000000000000000000000000000000000000000000000000815260040161076c90610d03565b60405180910390fd5b6000600260008981526020019081526020016000209050806004018054905087106107d5576040517f08c379a00000000000000000000000000000000000000000000000000000000081526004016107cc906112b0565b60405180910390fd5b60008160040188815481106107ed576107ec6112d0565b5b90600052602060002090600402019050806000015481600101548260020160009054906101000a900473ffffffffffffffffffffffffffffffffffffffff168360030180805461083c90610d81565b80601f016020809104026020016040519081016040528092919081815260200182805461086890610d81565b80156108b55780601f1061088a576101008083540402835291602001916108b5565b820191906000526020600020905b81548152906001019060200180831161089857829003601f168201915b50505050509050965096509650965050505092959194509250565b600080fd5b600080fd5b6000819050919050565b6108ed816108da565b81146108f857600080fd5b50565b60008135905061090a816108e4565b92915050565b600060208284031215610926576109256108d0565b5b6000610934848285016108fb565b91505092915050565b610946816108da565b82525050565b6000602082019050610961600083018461093d565b92915050565b6000819050919050565b61097a81610967565b811461098557600080fd5b50565b60008135905061099781610971565b92915050565b600080fd5b600080fd5b600080fd5b60008083601f8401126109c2576109c161099d565b5b8235905067ffffffffffffffff8111156109df576109de6109a2565b5b6020830191508360018202830111156109fb576109fa6109a7565b5b9250929050565b60008060008060608587031215610a1c57610a1b6108d0565b5b6000610a2a878288016108fb565b9450506020610a3b87828801610988565b935050604085013567ffffffffffffffff811115610a5c57610a5b6108d5565b5b610a68878288016109ac565b925092505092959194509250565b610a7f81610967565b82525050565b600081519050919050565b600082825260208201905092915050565b60005b83811015610abf578082015181840152602081019050610aa4565b60008484015250505050565b6000601f19601f8301169050919050565b6000610ae782610a85565b610af18185610a90565b9350610b01818560208601610aa1565b610b0a81610acb565b840191505092915050565b600073ffffffffffffffffffffffffffffffffffffffff82169050919050565b6000610b4082610b15565b9050919050565b610b5081610b35565b82525050565b600060a082019050610b6b6000830188610a76565b8181036020830152610b7d8187610adc565b9050610b8c6040830186610b47565b610b99606083018561093d565b610ba6608083018461093d565b9695505050505050565b6000602082019050610bc56000830184610b47565b92915050565b600080600060408486031215610be457610be36108d0565b5b6000610bf286828701610988565b935050602084013567ffffffffffffffff811115610c1357610c126108d5565b5b610c1f868287016109ac565b92509250509250925092565b60008060408385031215610c4257610c416108d0565b5b6000610c50858286016108fb565b9250506020610c61858286016108fb565b9150509250929050565b6000608082019050610c80600083018761093d565b610c8d6020830186610a76565b610c9a6040830185610b47565b8181036060830152610cac8184610adc565b905095945050505050565b7f6e657773206e6f7420666f756e64000000000000000000000000000000000000600082015250565b6000610ced600e83610a90565b9150610cf882610cb7565b602082019050919050565b60006020820190508181036000830152610d1c81610ce0565b9050919050565b7f4e487b7100000000000000000000000000000000000000000000000000000000600052604160045260246000fd5b7f4e487b7100000000000000000000000000000000000000000000000000000000600052602260045260246000fd5b60006002820490506001821680610d9957607f821691505b602082108103610dac57610dab610d52565b5b50919050565b60008190508160005260206000209050919050565b60006020601f8301049050919050565b600082821b905092915050565b600060088302610e147fffffffffffffffffffffffffffffffffffffffffffffffffffffffffffffffff82610dd7565b610e1e8683610dd7565b95508019841693508086168417925050509392505050565b6000819050919050565b6000610e5b610e56610e51846108da565b610e36565b6108da565b9050919050565b6000819050919050565b610e7583610e40565b610e89610e8182610e62565b848454610de4565b825550505050565b600090565b610e9e610e91565b610ea9818484610e6c565b505050565b5b81811015610ecd57610ec2600082610e96565b600181019050610eaf565b5050565b601f821115610f1257610ee381610db2565b610eec84610dc7565b81016020851015610efb578190505b610f0f610f0785610dc7565b830182610eae565b50505b505050565b600082821c905092915050565b6000610f3560001984600802610f17565b1980831691505092915050565b6000610f4e8383610f24565b9150826002028217905092915050565b610f6782610a85565b67ffffffffffffffff811115610f8057610f7f610d23565b5b610f8a8254610d81565b610f95828285610ed1565b600060209050601f831160018114610fc85760008415610fb6578287015190505b610fc08582610f42565b865550611028565b601f198416610fd686610db2565b60005b82811015610ffe57848901518255600182019150602085019450602081019050610fd9565b8683101561101b5784890151611017601f891682610f24565b8355505b6001600288020188555050505b505050505050565b82818337600083830152505050565b600061104b8385610a90565b9350611058838584611030565b61106183610acb565b840190509392505050565b60006060820190506110816000830187610a76565b61108e6020830186610a76565b81810360408301526110a181848661103f565b905095945050505050565b7f4e487b7100000000000000000000000000000000000000000000000000000000600052601160045260246000fd5b60006110e6826108da565b91506110f1836108da565b9250828203905081811115611109576111086110ac565b5b92915050565b600061111a826108da565b91507fffffffffffffffffffffffffffffffffffffffffffffffffffffffffffffffff820361114c5761114b6110ac565b5b600182019050919050565b600082905092915050565b61116c8383611157565b67ffffffffffffffff81111561118557611184610d23565b5b61118f8254610d81565b61119a828285610ed1565b6000601f8311600181146111c957600084156111b7578287013590505b6111c18582610f42565b865550611229565b601f1984166111d786610db2565b60005b828110156111ff578489013582556001820191506020850194506020810190506111da565b8683101561121c5784890135611218601f891682610f24565b8355505b6001600288020188555050505b50505050505050565b60006040820190506112476000830186610a76565b818103602083015261125a81848661103f565b9050949350505050565b7f6564697420696e646578204f4f42000000000000000000000000000000000000600082015250565b600061129a600e83610a90565b91506112a582611264565b602082019050919050565b600060208201905081810360008301526112c98161128d565b9050919050565b7f4e487b7100000000000000000000000000000000000000000000000000000000600052603260045260246000fdfea264697066735822122075afdf1368a05c9f7622ee7c3265b0dd6167273ea9b886acd81a0e0c2641d59764736f6c63430008180033",
  "linkReferences": {},
  "deployedLinkReferences": {}
}